:06000000000081316B29B4
:1000080080312000131E73282100131E732820003E
:10001800131268288D1E1828C130F1008330F200B1
:1000280081318E2180317328F901F90AAF01AF0AB5
:10003800210005301312260093002000131221001E
:1000480013167328AF01210004301E2877080319FE
:100058003A28260012082100D500D601D600D5017D
:10006800260011082100D504F7016128260012088E
:100078002100D700D801D800D70126001108210097
:10008800D704D730F000D53087316327803120007E
:100098002B35203E8600013087007008C03F71086C
:1000A800C13F2B08073A03195B28AB0A5C28AB0150
:1000B80021005808D6005708D5000830F90001304B
:1000C80013122600930621282F08003A03190E2838
:1000D800013A03192628033A03192A28732820000D
:1000E800111DE2282100111DE22820001111D72836
:1000F8000E1D8628C830F1008330F20081318E2130
:100108008031E228FA01FA0AB701B70A210005305E
:100118001111250093002000111121001115E2286A
:10012800B701210004308C28210028080319A928C8
:10013800250012082100D900DA01DA00D9012500CA
:1001480011082100D904A801D0282500120821008F
:10015800DB00DC01DC00DB01250011082100DB04E9
:10016800DB30F000D9308731632780312000323509
:10017800303E8600013087007008C03F7108C13FDB
:100188003208073A0319CA28B20ACB28B20121005B
:100198005C08DA005B08D9000830FA000130111158
:1001A800250093068F283708003A03197C28013A5E
:1001B80003199428033A03199828E2280B198B1E6F
:1001C80061290B11210060080319EC28E003232999
:1001D800F330E0002000A801A80A232979080319B0
:1001E800F728F90361290830A901A90AF701F70AD4
:1001F800F900AB01AC010230F801AF002100053075
:1002080013122600930020001312210013166129EF
:10021800F708031D16297908031DF5288731C92712
:1002280080316129780803196129210021082004F7
:10023800031912290130A0020030A13B61292000D6
:100248002F08013A0319F228033A03190C29122935
:1002580061297A0803193229FA030900B001B00AA2
:1002680021000830A801A80AFA002000B201B30151
:1002780021000230AB012000B70021000530111128
:1002880025009300200011112100111509002100FB
:10029800A808031D55297A08031D30298731A0278E
:1002A80009002B08031909002308220403195229FD
:1002B8000130A2020030A33B090020003708013AB0
:1002C80003192D29033A03194B29522909008801DA
:1002D80081316E292030F701F801F901FA01FB019B
:1002E800FC018400003085002A308731F2278131F3
:1002F800A0308400003085003D308731F2278131FD
:10030800203084000130850038308731F227200002
:1003180088311728710884007208850000080038A1
:100328000319080071088400720885000008A121DB
:100338008131F10A0319F20A8E29F00023009E1C6C
:08034800A22970089A000800C8
:100400000034FE343C3403340034AA3463340334FF
:1004100000340D346434033400348734D934013467
:100420000034EA34D93401340034963400340234D0
:1004300000346534DD3401340034C834DD34013433
:10044000003474340434023400341D346034033412
:10045000003480346034033400342C348734033463
:1004600000346834B634013400341434DD340134DB
:1004700000347734DD34013400344634BA34013486
:100480000034F234E034013400345534E1340134C2
:100490000034EB34673403340034CC345F34033439
:1004A00000342F34603403340034DC3440340334FB
:1004B000003488346734033400344334C3340434A0
:1004C0000034B634BF34043400346234E6340434C7
:1004D0000034C534E634043400349434C334043472
:1004E00000344034EA3404340034A334EA340434AD
:1004F00000349B343C340334003461343D340334E1
:100500000034B9348A3403340034DB34B234013477
:1005100000343334003402340034F934003402340B
:100520000034B934B63401340034113404340234A4
:100530000034D73404340234003471343934033491
:100540000034C9348634033400348F3487340334A0
:1005500000340534B63401340034CB34B6340134BD
:1005600000342334043402340034E334B934013425
:100570000034A934BA34013400340134083402346C
:1005800000342134C7340434003483343934033420
:100590000034DB348634033400347934403403349B
:1005A00000343F344134033400348B34403403345A
:1005B00000345334BF34043400341934C0340434A8
:1005C000003471340D34053400343134C334043410
:1005D0000034F734C334043400344F341134053458
:1005E0000034FF34CA3404340034E3346034033458
:1005F000003407349434063400347834B23401348F
:1006000000343E34B334013400342434D93401345A
:1006100000344D34DA3401340034423427340234A7
:100620000034A5342734023400345634B63401344F
:1006300000341C34B734013400340234DD34013466
:1006400000342B34DE340134003420342B340234B3
:10065000003483342B34023400343B34AE3403345E
:100660000034BA345F3403340034B7344D340634C4
:100670000034D834AD3403340034DF340B34023466
:1006800000348A34B234013400343634D93401347D
:1006900000349934D934013400342434BE34013464
:1006A0000034D034E434013400343334E5340134DC
:1006B00000344C34463406340034F8346C34063498
:1006C00000345B346D3406340034AD343C340334D0
:1006D00000346934443403340034D93449340634A2
:1006E00000342734B23401340034ED34B2340134F0
:1006F00000344534003402340034C134BD34013494
:1007000000348734BE3401340034E93445340634CF
:100710000034AF34463406340034F534B93401348F
:100720000034D334BD34013400346534BF34043470
:100730000034FB34453406340034D43439340334C3
:1007400000340E3439340334003420343934033463
:100750000034E83491342334003497348E34033435
:100760000034BD3438340334003464343734203436
:1007700000342E347634303435343A34303438342E
:1007800000344634413455344C345434313400341C
:100790004634413455344C3454343234003420001F
:1007A000EE00063E860087018108031D092C6E08B5
:1007B000043E86000108CA000A30B52483315E2455
:1007C0008331F4248331033EE5248331B52483311E
:1007D0005E248331EA248331023ECB2483315E24BC
:1007E0008331FE248331013EBD2483315E24833175
:1007F00008258331A62483315E2483314A08E60725
:100800004B08E73D4C08E83D4D0883248331053E05
:10081000D92C6E08053E860087010108CA000A30FF
:10082000B52483315E248331F4248331043EE524EE
:100830008331B52483315E248331EA248331033E3E
:10084000CB2483315E248331FE248331023EBD24D8
:1008500083315E24833108258331013EA624833110
:100860005E2483314A08EA004B08EB004C08EC0098
:100870004D08ED006E08860087010108CA000F30A0
:10088000CB01CC01CD01D101D0004230CF004030AE
:10089000CE005E2483314A08EA074B08EB3D4C0842
:1008A000EC3D4D08ED3D6A08E6076B08E73D6C0836
:1008B000E83D6D0883248331063ED92CD201D30153
:1008C000D401D5014A1C6C2C4E08D2074F08D33DE9
:1008D0005008D43D5108D53DCE35CF0DD00DD10DAA
:1008E000CD36CC0CCB0CCA0C4D084C044B044A043E
:1008F000031D622C5508CD005408CC005308CB00D2
:100900005208CA000800E93D6608E2076708E33DAF
:100910006808E43D6908E53D6208DE076308DF3DDD
:100920006408E03D6508E13D5E08DA075F08DB3DED
:100930006008DC3D6108DD3D5D08D9005C08D80039
:100940005B08D7005A08D6006E08080086008701A9
:100950000108CA000130CB01CC01CD01D101D0008A
:100960008630CF00A030CE000800CB01CC01CD01F5
:10097000CE00CF01D001D101080086008701010817
:10098000CA002730CB01CC01CD01D101D001CF006D
:100990001030CE000800860087010108CA0003302D
:1009A000CB01CC01CD01D101D001CF00E830CE0088
:1009B0000800860087010108D60701300318D70711
:1009C0000318D8070318D907080086008701010813
:1009D000CA0064344A08DE004B08DF004C08E0001F
:1009E0004D08E1006E0808004A08DA004B08DB00F9
:1009F0004C08DC004D08DD006E0808004A08E200E3
:100A00004B08E3004C08E4004D08E5006E080800C0
:100A10004A08E6004B08E7004C08E8004D08E900EA
:100A20006E080800D300053E860087015308043E87
:100A3000840085010008CA005308033E84000008B2
:100A4000CB005308023E84000008CC005308013E4E
:100A500084000008CD005308840000084D074C07AF
:100A60004B074A070107CE005308053E860053088E
:100A7000033E84000008CA005308013E84000008B9
:100A80004A070107D0005308043E86005308023E7F
:100A900084000008CA005308840000084A070107C0
:100AA000CF000C304E02031CB62D4E08F53ED2008E
:100AB00005305202031800340430D100D208031963
:100AC000013450184F188D2D52188D2DD401712DD1
:100AD00021268531031C702D540830268531D00322
:100AE000D40A0630D40A54020318792DD208031D03
:100AF000682DD401852D21268531031C832D5408B2
:100B000030268531CF03D40AD40A053054020318A5
:100B1000AF2DD208031D7B2DAF2D4F1C9E2DD40170
:100B200021268531031C992D540830268531CF03A9
:100B3000AF2D3C268531031C902DAF2D501800346D
:100B4000D401D40A21268531031CAB2D540830264C
:100B50008531D003AF2D3C268531031CA22D5208D0
:100B600003195E2DD103510B5E2D00340B304E0264
:100B7000031801344E080B3CD20005305202031812
:100B80000034D101D10AD2080319013450184F188A
:100B9000F42D5218F42DD401D72D5408292685316F
:100BA000031CD62D540836268531D00AD40A0630C7
:100BB000D40A54020318DF2DD208031DCD2DD40111
:100BC000EC2D540829268531031CEA2D54083626BD
:100BD0008531CF0AD40AD40A053054020318182EDE
:100BE000D208031DE12D182E4F1C062ED4015408E7
:100BF00029268531031C012E540836268531CF0A5B
:100C0000182E3C268531031CF72D182E5018003461
:100C1000D401D40A540829268531031C142E540803
:100C200036268531D00A182E3C268531031C0A2E23
:100C300052080319C32DD10A5108043A031900348C
:100C4000C32D54085307CA008600870151080102CA
:100C500008005307CA0086008701010851020800F6
:100C60005307CA0086008103D20308005307CA0055
:100C70008600810AD20308000630D40AD40A54023E
:100C800008005208D90049278631D500D601D90A73
:100C9000D801D80A59085007D30051080318890A07
:100CA000D91B8903D4005308013E86000030543D0F
:100CB000870001086A3A03196D2E590849278631C1
:100CC000CA00CB015808CC00CD01182786314A084C
:100CD000D5074B08D63DD90A492E6730CA00CB014B
:100CE0005608CD005508CC007F2686314A08D7002B
:100CF00059084927863157060319013400344B0837
:100D00004A0403199A2ECE01CE0ACB1B8A2ECA356D
:100D1000CB0D842E4B084D02031D902E4A084C0229
:100D2000031C962E4A08CC024B08CD3BCB36CA0C8E
:100D3000CE0B8A2E4D08CB004C08CA000800D90003
:100D4000500886008701500884008501003FD100CB
:100D5000013FD200D236D10C403F5107D300413F72
:100D6000523DD4005908860051278631031C0134B6
:100D700050083D278631D300413FD400D335D40DF0
:100D800051085307D5005208543DD6005908860033
:100D9000403FD700413FD80056085802031DD22ECD
:100DA000550857020318EC2E5908860087012D2795
:100DB0008631D500413FD600D535D60D53085502B2
:100DC000D7005408563BD80052085802031DEA2E9B
:100DD00051085702031C023450083D2786315C2716
:100DE00086311827863151084A07D30052084B3DF7
:100DF000D40059088600870151278631031804342E
:100E00005908860087012D2786315C2786311827EF
:100E1000863153084A02D50054084B3BD60052088D
:100E20005602031D152F51085502031C03340434C8
:100E3000CE01CF014A1C202F4C08CE074D08CF3DD4
:100E4000CC35CD0DCB36CA0C4B084A04031D1A2FE6
:100E50004F08CB004E08CA000800403FD100413F78
:100E6000D20050088600403FD300413FD400D43622
:100E7000D30C50088600403F080086008701403FA1
:100E8000D100413FD200D236D10C50088600403FFD
:100E900008005007860051080318890A87000108D6
:100EA0000800403FD500413FD60054085602031DBC
:100EB0000800530855020800CA00413FCB00033028
:100EC000CC00CD010800F600700886008701403F85
:100ED000F200413FF30076088600403FF400413FB6
:100EE000F50073087502031D772F7208740203184A
:100EF000872F760886008701700884008501403FAF
:100F00000002F0000131413F003BF1000800700891
:100F100086008701760884008501003FF200013FCA
:100F2000F300F209F309403F7207F400413F733DBB
:100F3000F5007408013EF0000030753DF100080036
:100F40002100A901AA01A801AB01AD01AC0120005B
:100F5000A401A501A601A701FB01FC01C601C7016F
:100F6000B001B00AB101B201B3010E1DC22FB70129
:100F700021000430111125009300200011112100DF
:100F800011150800FA01FA0AB701B70A2100053065
:100F9000BA2F2100A401A501F701F801A701A601BC
:100FA0002000A001A101A201A301BA01BB01BE0161
:100FB000BF01A901A90AAA01AB01AC018D1EEB2F4B
:100FC000AF012100043013122600930020001312F9
:100FD000210013160800F901F90AAF01AF0A210038
:100FE0000530E32F640080010131890BF32F0034B9
:10102E008530210095001908873970389900991775
:10103E0020008E01900121000E110C108C10230047
:10104E000C108C108C158D118D148D1221008D1598
:10105E008D1624008D152100F3300E15E000C727E4
:10106E008831BD27883140309E1622009D00B12761
:10107E00883118268831143012110B178B178B16E6
:10108E009700F901FA013030A401A501A701DF0094
:10109E00A901AA01AD012000B50110300C108C1071
:1010AE002100DD002730DE005E085D040319642890
:1010BE000130DD020030DE3B5B284B27883188276C
:1010CE0088312000280803197928A801640079289E
:1010DE000C1072280C148C1085280C1077280C1408
:1010EE008C14852820002F08003A03196F28013A26
:1010FE0003197128033A0319742876282F08023A27
:10110E00031DB92A2B082C060319B92A2C35203EAB
:10111E00860001308700403FB800413FB9002C08DF
:10112E00073A03199C28AC0A9D28AC01F80803194C
:10113E00622979290230D100D2010F27883102307D
:10114E002100C700CD0120003908BB003808BA00C5
:10115E00A90AB92AD101D10AD20104278831210066
:10116E00C801C80A20003908BF003808BE00AF28E1
:10117E003C30D000383086319F2688312100C9009E
:10118E00DE268831AF284030D000383086319F2699
:10119E0088312100CA0020003808BE073908BF3D3B
:1011AE00AF283C30D000383086319F268831210060
:1011BE00CB00C7284030D000383086319F2688318A
:1011CE00822688314C268831DB25C7308331CF23E8
:1011DE00883132268831AF258831AE006E3A031D34
:1011EE000929C730853112258831C7308331CF2385
:1011FE00883132268831AF258831AE004C268831B1
:10120E00DB2588312E08693A031D1B292E08210083
:10121E00AF0020001730A901A90A2A02031CAA0A4E
:10122E00D030922688315E292E086C3A031D38295B
:10123E000A30CA00CB01CC01CD012308D10022080F
:10124E00D0002108CF002008CE0084315E248831E2
:10125E004D08A3004C08A2004B08A1004A08A000AC
:10126E00AF284B278831B92A3C30D0003830863130
:10127E009F2688312100CD00C7308331CF2388319E
:10128E0032268831AF258831AE006D3A031D3829DC
:10129E006A302100C60020001630A901A90AAA0052
:1012AE0092268831D030A701A70AA601A60AA0006F
:1012BE000730A100B92A2908013A0319A128033AD7
:1012CE000319B128013A0319BF28073A0319CA288E
:1012DE00013A0319D828033A0319E128013A0319F0
:1012EE003B29B92A2100A7080319102AA42A3C3049
:1012FE00D000383086319F268831A7284030D00064
:10130E00383086319F2688312100C800B9283C30FC
:10131E00D000383086319F268831EF002908C63E2E
:10132E00E9268831C728CA284030D00038308631A7
:10133E009F2688318226C7308331CF2388313226CB
:10134E008831AF258831AE006E3A031DBB29C730F8
:10135E00853112258831C7308331CF23883132262B
:10136E008831AF258831AE004C268831DB25883197
:10137E002E086B3A0319AF282E086E3A031DD0299A
:10138E00210032307A2688316A3087018100B030F0
:10139E00982A2A08742688311730A901A90A2A0228
:1013AE00031CAA0AA001A101A201A301B92A3C3083
:1013BE00D000383086319F2688312100CD00C730CD
:1013CE008331CF23883132268831AF258831AE0064
:1013DE006A3A031D0D2A2A087426B030AD00A90101
:1013EE00A90AAA01AF30D0000030D101D201863156
:1013FE0041268831003A0319082A2100A401A40AC3
:10140E00B92AD2268831B0302000982A21003430F3
:10141E00C92920002908013A03197E29033A031924
:10142E008529013A03198E29073A03199A29013A97
:10143E0003198E29033A03199B29013A0319DE2950
:10144E00B92A4030D000383086319F2688312100AD
:10145E00CC00CD01B9283C30D000383086319F26E3
:10146E0088312100CB00AA28CA28BF284030D000DE
:10147E00383086319F2688312100C800D2283C3072
:10148E00D000383086319F2688312100C700DE26F5
:10149E00C7308331CF23883132268831AF2588314A
:1014AE00AE006E3A031D682AC73085311225883189
:1014BE00C7308331CF23883132268831AF2588312A
:1014CE00AE004C268831DB2588312E08693A031D83
:1014DE008B2A2A087426AF30D000D1012A08D200F8
:1014EE00863141268831003A0319882A2100A40149
:1014FE00A40A20002A08B03EAD00A901A90AAA013B
:10150E00B92AD2268831802A2E086E3A031D9A2ACD
:10151E00210032307A2688316930870181002A080D
:10152E00B03EAD00B92A2A0874268831A901A90A4D
:10153E002A080319D929AA03D92920002908013A12
:10154E000319282A033A0319322A013A03193B2AAE
:10155E00073A03193C2A013A03193D2A033A0319A3
:10156E00462AB92A20003708023A031DEC2C32080D
:10157E0033060319EC2C3335303E860001308700DC
:10158E00403FC200413FC3003308073A0319D12A36
:10159E00B30AD22AB3012100AB080319982BB02B42
:1015AE000230D100D201F926883102302100CE005E
:1015BE00D40120004308FC004208FB00B00AEC2CCA
:1015CE00D101D10AD201EE2688312100CF01CF0AF6
:1015DE0020004308C7004208C600E52A4430D00068
:1015EE00423086319F2688312100D000D82688319E
:1015FE00E52A4830D000423086319F2688312100BE
:10160E00D10020004208C6074308C73DE52A4430F2
:10161E00D000423086319F2688312100D200FD2A2B
:10162E004830D000423086319F268831A22688313C
:10163E0043268831DB25CE308331CF2388312126D6
:10164E008831AF258831B6006E3A031D3F2BCE3060
:10165E00853112258831CE308331CF238831212632
:10166E008831AF258831B60043268831DB25883195
:10167E003608693A031D512B36082200C00020009F
:10168E001730B001B00A3102031CB10AA4019A2628
:10169E008831942B36086C3A031D6E2B0A30CA0023
:1016AE00CB01CC01CD012708D1002608D00025089A
:1016BE00CF002408CE0084315E2488314D08A70067
:1016CE004C08A6004B08A5004A08A400E52A882766
:1016DE008831EC2C4430D000423086319F26883140
:1016EE002100D400CE308331CF238831212688319A
:1016FE00AF258831B6006D3A031D6E2B6A3022007D
:10170E00D70020001630B001B00AB100A4019A260D
:10171E008831AD01AD0AAC01AC0AA2000730A300BE
:10172E00EC2C20003008013A0319D72A033A03198A
:10173E00E72A013A0319F52A073A0319002B013A51
:10174E0003190E2B033A0319172B013A0319712BA8
:10175E00EC2CAD080319432CD72C4430D00042306A
:10176E0086319F268831DD2A4830D00042308631BE
:10177E009F2688312100CF00EF2A4430D00042301E
:10178E0086319F268831EF003008CD3EE92688311C
:10179E00FD2A002B4830D000423086319F268831FA
:1017AE00A226CE308331CF23883121268831AF2532
:1017BE008831B6006E3A031DF12BCE3085311225DD
:1017CE008831CE308331CF23883121268831AF2521
:1017DE008831B60043268831DB25883136086B3ACE
:1017EE000319E52A36086E3A031D042C2100323007
:1017FE006A2688316A3081003E2C31086326883192
:10180E001730B001B00A3102031CB10AA401A501C0
:10181E00A601A701EC2C4430D000423086319F2621
:10182E0088312100D400CE308331CF238831212658
:10183E008831AF258831B6006A3A031D402C310835
:10184E0063264130B400B001B00AB1014030D0007F
:10185E000130D100D201863141268831003A031978
:10186E003C2C2100A901A90AEC2CB226883141306A
:10187E00CB2C21003430FF2B20003008013A031905
:10188E00B42B033A0319BB2B013A0319C42B073AA5
:10189E000319D02B013A0319C42B033A0319D12B88
:1018AE00013A0319122CEC2C4830D000423086310C
:1018BE009F2688312100D300D401EF2A4430D00076
:1018CE00423086319F2688312100D200E02A002B3B
:1018DE00F52A4830D000423086319F2688312100CB
:1018EE00CF00082B4430D000423086319F268831FD
:1018FE002100CE00D826CE308331CF238831212649
:10190E008831AF258831B6006E3A031D9B2CCE3040
:10191E00853112258831CE308331CF23883121266F
:10192E008831AF258831B60043268831DB258831D2
:10193E003608693A031DBF2C310863264030D000AB
:10194E000130D1003108D200863141268831003A6B
:10195E000319BC2C2100A901A90A20003108413E1F
:10196E00B400B001B00AB101EC2CB2268831B42C0F
:10197E0036086E3A031DCD2C210032306A2688318E
:10198E00693081003108413EB400EC2C31086326E9
:10199E008831B001B00A310803190D2CB1030D2C9A
:1019AE0020003008013A03195B2C033A0319652C09
:1019BE00013A03196E2C073A03196F2C013A0319D9
:1019CE00702C033A0319792CEC2C210024080319EE
:1019DE00062DA401AA2688310319FD2C2D08CF004F
:1019EE00D001062688312000AD0AF12CE42688317C
:1019FE00742788310D30A52588314B27883125086D
:101A0E000319472D2130A525883121005F08313A71
:101A1E00031D1C2D3F30A5258831202D2D08CF000C
:101A2E00D001062688312000AD0AAA268831031D72
:101A3E00152D2E30A52588313130A52588312E3033
:101A4E00A52588312100A608031D2F2D4630302DE7
:101A5E005230A52588312E30A525883121005F080A
:101A6E00A5258831C6268831742788310D30A525E5
:101A7E00883121003030A501DF00A6014B278831C7
:101A8E0029080319622DA90120008A26883103191D
:101A9E00592D3408CF000130D000062688312000A1
:101AAE00B40A4B2DE4268831742788310D30A525D4
:101ABE008831882788312A08031968282130A525FE
:101ACE00883120003508313A031D792D3F30A52588
:101ADE0088317D2D3408CF000130D00006268831A4
:101AEE002000B40A8A268831031D712D2E30A525BB
:101AFE0088313230A52588312E30A5258831210038
:101B0E00AC08031D8C2D46308D2D5230A525883105
:101B1E002E30A525883120003508A5258831C6260A
:101B2E008831742788310D30A52588312100303059
:101B3E00AA012000B5002100AC0166282000CA00D1
:101B4E0023009E1CA72D20004A0823009A0008009F
:101B5E00D4015408CE000130CF01CE35CF0DCE3595
:101B6E00CF0D4E07840082304F3D8500003FD000E0
:101B7E00013FD100023FD200033FD3004D06031DAB
:101B8E00D22D4C085206031DD22D4B085106031DB3
:101B9E00D22D4A0850060319D92D6E30D40A54029C
:101BAE00031CB02D54080800D9005408043E8600CA
:101BBE0087010108D500D6015408023E860054085C
:101BCE00552688315208CC2688311A278831590873
:101BDE00B92688315408053E86000108D500D60185
:101BEE005408033E86005408013E5526883153089A
:101BFE00CC2688311A2788315108B92608000A30B8
:101C0E00CA00C0268831D0278831303EA5258831BC
:101C1E000A302000CA00C0268831E8278831303EBD
:101C2E00A52D043011112500930020001111210063
:101C3E00111508005908A7005808A6005708A50056
:101C4E005608A4002708CD002608CC002508CB0096
:101C5E002408CA0008005908A3005808A200570813
:101C6E00A1005608A0002308CD002208CC002108B0
:101C7E00CB002008CA0008004830D1007B30D200CB
:101C8E004630D300CE30D40044344030D1003A3008
:101C9E00D2003E30D300C730D4003C3484008501DE
:101CAE0000080107D700D801D80D55085707CA00FC
:101CBE005608583DCB000800403E86000130870094
:101CCE00360881000800AA01AA0A2000B5003108D2
:101CDE00403E8600013087000800AF3E8600870137
:101CEE002E0881000800A501A50ADF0020002A08A1
:101CFE00AF3E860008002100CC0020003808BE0749
:101D0E003908BF3D08003408013E860001308700C7
:101D1E0001086A3A0800A001A101A201A301F8017D
:101D2E00F80A21000800A501A601A7012100D03064
:101D3E00AB01AB0A08002100D30020004208C60701
:101D4E004308C73D080020002D08013E860087018C
:101D5E0001086A3A080021003530AA01AA0A2000BB
:101D6E00B5000800860087014A08C03F4B08C13FF6
:101D7E0008004F0886005008870001080800B93097
:101D8E002000CB008330CC0008008600403FCC0002
:101D9E00413FCD00080021003530A501A50ADF0026
:101DAE00080020004208FB074308FC3D0800200005
:101DBE003808BA073908BB3D0800B930CB0083306C
:101DCE00CC000800860087016F08810008005208C9
:101DDE00CB005108452788311A274B08C9004A08FD
:101DEE00C80008005208CB005108452788311A2731
:101DFE004B08C5004A08C40008005208CB00510821
:101E0E003F2788311A274B08C1004A08C000080036
:101E1E005208CB0051083F2788311A274B08BD00C6
:101E2E004A08BC000800CE01CF014B084A04031932
:101E3E003A2FD001D00ACB1B272FCA35CB0D212F1D
:101E4E00CE35CF0D4B084D02031D2F2F4A084C02E5
:101E5E00031C362F4A08CC024B08CD3B4E14CB3612
:101E6E00CA0CD00B272F4F08CB004E08CA00080013
:101E7E00CA003908CD003808CC000800CA00430853
:101E8E00CD004208CC0008002100A401A501F701F5
:101E9E00F801A701A6012000A001A101A201A30142
:101EAE00BA01BB01BE01BF01A901A90AAA01AB017A
:101EBE00AC018D1E6D2FAF012100043013122600D0
:101ECE00930020001312210013160800F901F90ADD
:101EDE00AF01AF0A21000530652F4B0884004C0876
:101EEE00850000080038031908004B0884004C08D0
:101EFE0085000008A52588312000CB0A0319CC0ADD
:101F0E00742F2100A901AA01A801AB01AD01AC01FA
:101F1E002000A401A501A601A701FB01FC01C60139
:101F2E00C701B001B00AB101B201B3010E1DAA2F53
:101F3E00B70121000430111125009300200011116A
:101F4E00210011150800FA01FA0AB701B70A21009B
:101F5E000530A22F21001312220004301D17260077
:101F6E0093002000131221001316080019302300CD
:101F7E009B001E131E121E111F101D139D1708000D
:101F8E0039302000980099011814111021001110F9
:101F9E000800CB00CD014A080319E62FCC01CC0A6C
:101FAE00CA1BDB2FCA35D62FCD354A084B02031C70
:101FBE00E32F4A08CB024D14CA36CC0BDB2F4D084B
:101FCE000800CC000830CD00CE014C08CB00073005
:101FDE00CB36890BEF2F4E354B04CE00CC354A084D
:101FEE004E02031CFC2F4A08CE02CD0BEC2F4E08DE
:021FFE000800D9
:020000040001F9
:04000E00FC3FFF1E96
:00000001FF
