:06000000000081316B29B4
:1000080080312000131E73282100131E732820003E
:10001800131268288D1E1828C130F1008330F200B1
:1000280081318E21803173280230F900AF01AF0A87
:10003800210005301312260093002000131221001E
:1000480013167328AF01210004301E2877080319FE
:100058003A28260012082100D500D601D600D5017D
:10006800260011082100D504F7016128260012088E
:100078002100D700D801D800D70126001108210097
:10008800D704D730F000D53087316327803120007E
:100098002B35203E8600013087007008C03F71086C
:1000A800C13F2B08073A03195B28AB0A5C28AB0150
:1000B80021005808D6005708D5000830F90001304B
:1000C80013122600930621282F08003A03190E2838
:1000D800013A03192628033A03192A28732820000D
:1000E800111DE2282100111DE22820001111D72836
:1000F8000E1D8628C830F1008330F20081318E2130
:100108008031E2280230FA00B701B70A2100053031
:100118001111250093002000111121001115E2286A
:10012800B701210004308C28210028080319A928C8
:10013800250012082100D900DA01DA00D9012500CA
:1001480011082100D904A801D0282500120821008F
:10015800DB00DC01DC00DB01250011082100DB04E9
:10016800DB30F000D9308731632780312000323509
:10017800303E8600013087007008C03F7108C13FDB
:100188003208073A0319CA28B20ACB28B20121005B
:100198005C08DA005B08D9000830FA000130111158
:1001A800250093068F283708003A03197C28013A5E
:1001B80003199428033A03199828E2280B198B1E6F
:1001C80061290B11210060080319EC28E003232999
:1001D800F330E0002000A801A80A232979080319B0
:1001E800F728F90361290830A901A90AF701F70AD4
:1001F800F900AB01AC010230F801AF002100053075
:1002080013122600930020001312210013166129EF
:10021800F708031D16297908031DF5288731C72714
:1002280080316129780803196129210021082004F7
:10023800031912290130A0020030A13B61292000D6
:100248002F08013A0319F228033A03190C29122935
:1002580061297A0803193229FA030900B001B00AA2
:1002680021000830A801A80AFA002000B201B30151
:1002780021000230AB012000B70021000530111128
:1002880025009300200011112100111509002100FB
:10029800A808031D55297A08031D30298731A0278E
:1002A80009002B08031909002308220403195229FD
:1002B8000130A2020030A33B090020003708013AB0
:1002C80003192D29033A03194B29522909008801DA
:1002D80081316E292030F701F801F901FA01FB019B
:1002E800FC018400003085002A308731EE278131F7
:1002F800A0308400003085003D308731EE27813101
:10030800203084000130850038308731EE27200006
:1003180088311B287108840072088500000800389D
:100328000319080071088400720885000008A121DB
:100338008131F10A0319F20A8E29F00023009E1C6C
:08034800A22970089A000800C8
:100400000034FE343C3403340034AA3463340334FF
:1004100000340D346434033400348734D934013467
:100420000034EA34D93401340034963400340234D0
:1004300000346534DD3401340034C834DD34013433
:10044000003474340434023400341D346034033412
:10045000003480346034033400342C348734033463
:1004600000346834B634013400341434DD340134DB
:1004700000347734DD34013400344634BA34013486
:100480000034F234E034013400345534E1340134C2
:100490000034EB34673403340034CC345F34033439
:1004A00000342F34603403340034DC3440340334FB
:1004B000003488346734033400344334C3340434A0
:1004C0000034B634BF34043400346234E6340434C7
:1004D0000034C534E634043400349434C334043472
:1004E00000344034EA3404340034A334EA340434AD
:1004F00000349B343C340334003461343D340334E1
:100500000034B9348A3403340034DB34B234013477
:1005100000343334003402340034F934003402340B
:100520000034B934B63401340034113404340234A4
:100530000034D73404340234003471343934033491
:100540000034C9348634033400348F3487340334A0
:1005500000340534B63401340034CB34B6340134BD
:1005600000342334043402340034E334B934013425
:100570000034A934BA34013400340134083402346C
:1005800000342134C7340434003483343934033420
:100590000034DB348634033400347934403403349B
:1005A00000343F344134033400348B34403403345A
:1005B00000345334BF34043400341934C0340434A8
:1005C000003471340D34053400343134C334043410
:1005D0000034F734C334043400344F341134053458
:1005E0000034FF34CA3404340034E3346034033458
:1005F000003407349434063400347834B23401348F
:1006000000343E34B334013400342434D93401345A
:1006100000344D34DA3401340034423427340234A7
:100620000034A5342734023400345634B63401344F
:1006300000341C34B734013400340234DD34013466
:1006400000342B34DE340134003420342B340234B3
:10065000003483342B34023400343B34AE3403345E
:100660000034BA345F3403340034B7344D340634C4
:100670000034D834AD3403340034DF340B34023466
:1006800000348A34B234013400343634D93401347D
:1006900000349934D934013400342434BE34013464
:1006A0000034D034E434013400343334E5340134DC
:1006B00000344C34463406340034F8346C34063498
:1006C00000345B346D3406340034AD343C340334D0
:1006D00000346934443403340034D93449340634A2
:1006E00000342734B23401340034ED34B2340134F0
:1006F00000344534003402340034C134BD34013494
:1007000000348734BE3401340034E93445340634CF
:100710000034AF34463406340034F534B93401348F
:100720000034D334BD34013400346534BF34043470
:100730000034FB34453406340034D43439340334C3
:1007400000340E3439340334003420343934033463
:100750000034E83491342334003497348E34033435
:100760000034BD3438340334003464343734203436
:1007700000342E347634303435343A34303437342F
:1007800000344634413455344C345434313400341C
:100790004634413455344C3454343234003420001F
:1007A000EE00063E860087018108031D092C6E08B5
:1007B000043E86000108CA000A30B52483315E2455
:1007C0008331F4248331033EE5248331B52483311E
:1007D0005E248331EA248331023ECB2483315E24BC
:1007E0008331FE248331013EBD2483315E24833175
:1007F00008258331A62483315E2483314A08E60725
:100800004B08E73D4C08E83D4D0883248331053E05
:10081000D92C6E08053E860087010108CA000A30FF
:10082000B52483315E248331F4248331043EE524EE
:100830008331B52483315E248331EA248331033E3E
:10084000CB2483315E248331FE248331023EBD24D8
:1008500083315E24833108258331013EA624833110
:100860005E2483314A08EA004B08EB004C08EC0098
:100870004D08ED006E08860087010108CA000F30A0
:10088000CB01CC01CD01D101D0004230CF004030AE
:10089000CE005E2483314A08EA074B08EB3D4C0842
:1008A000EC3D4D08ED3D6A08E6076B08E73D6C0836
:1008B000E83D6D0883248331063ED92CD201D30153
:1008C000D401D5014A1C6C2C4E08D2074F08D33DE9
:1008D0005008D43D5108D53DCE35CF0DD00DD10DAA
:1008E000CD36CC0CCB0CCA0C4D084C044B044A043E
:1008F000031D622C5508CD005408CC005308CB00D2
:100900005208CA000800E93D6608E2076708E33DAF
:100910006808E43D6908E53D6208DE076308DF3DDD
:100920006408E03D6508E13D5E08DA075F08DB3DED
:100930006008DC3D6108DD3D5D08D9005C08D80039
:100940005B08D7005A08D6006E08080086008701A9
:100950000108CA000130CB01CC01CD01D101D0008A
:100960008630CF00A030CE000800CB01CC01CD01F5
:10097000CE00CF01D001D101080086008701010817
:10098000CA002730CB01CC01CD01D101D001CF006D
:100990001030CE000800860087010108CA0003302D
:1009A000CB01CC01CD01D101D001CF00E830CE0088
:1009B0000800860087010108D60701300318D70711
:1009C0000318D8070318D907080086008701010813
:1009D000CA0064344A08DE004B08DF004C08E0001F
:1009E0004D08E1006E0808004A08DA004B08DB00F9
:1009F0004C08DC004D08DD006E0808004A08E200E3
:100A00004B08E3004C08E4004D08E5006E080800C0
:100A10004A08E6004B08E7004C08E8004D08E900EA
:100A20006E080800D300053E860087015308043E87
:100A3000840085010008CA005308033E84000008B2
:100A4000CB005308023E84000008CC005308013E4E
:100A500084000008CD005308840000084D074C07AF
:100A60004B074A070107CE005308053E860053088E
:100A7000033E84000008CA005308013E84000008B9
:100A80004A070107D0005308043E86005308023E7F
:100A900084000008CA005308840000084A070107C0
:100AA000CF000C304E02031CB62D4E08F53ED2008E
:100AB00005305202031800340430D100D208031963
:100AC000013450184F188D2D52188D2DD401712DD1
:100AD00021268531031C702D540836268531D0031C
:100AE000D40A0630D40A54020318792DD208031D03
:100AF000682DD401852D21268531031C832D5408B2
:100B000036268531CF03D40AD40A0530540203189F
:100B1000AF2DD208031D7B2DAF2D4F1C9E2DD40170
:100B200021268531031C992D540836268531CF03A3
:100B3000AF2D3C268531031C902DAF2D501800346D
:100B4000D401D40A21268531031CAB2D5408362646
:100B50008531D003AF2D3C268531031CA22D5208D0
:100B600003195E2DD103510B5E2D00340B304E0264
:100B7000031801344E080B3CD20005305202031812
:100B80000034D101D10AD2080319013450184F188A
:100B9000F42D5218F42DD401D72D5408292685316F
:100BA000031CD62D540830268531D00AD40A0630CD
:100BB000D40A54020318DF2DD208031DCD2DD40111
:100BC000EC2D540829268531031CEA2D54083026C3
:100BD0008531CF0AD40AD40A053054020318182EDE
:100BE000D208031DE12D182E4F1C062ED4015408E7
:100BF00029268531031C012E540830268531CF0A61
:100C0000182E3C268531031CF72D182E5018003461
:100C1000D401D40A540829268531031C142E540803
:100C200030268531D00A182E3C268531031C0A2E29
:100C300052080319C32DD10A5108043A031900348C
:100C4000C32D54085307CA008600870151080102CA
:100C500008005307CA0086008701010851020800F6
:100C60005307CA008600810AD20308005307CA004E
:100C700086008103D20308000630D40AD40A540245
:100C800008005208D90049278631D500D601D90A73
:100C9000D801D80A59085007D30051080318890A07
:100CA000D91B8903D4005308013E86000030543D0F
:100CB000870001086A3A03196D2E590849278631C1
:100CC000CA00CB015808CC00CD01182786314A084C
:100CD000D5074B08D63DD90A492E6730CA00CB014B
:100CE0005608CD005508CC007F2686314A08D7002B
:100CF00059084927863157060319013400344B0837
:100D00004A0403199A2ECE01CE0ACB1B8A2ECA356D
:100D1000CB0D842E4B084D02031D902E4A084C0229
:100D2000031C962E4A08CC024B08CD3BCB36CA0C8E
:100D3000CE0B8A2E4D08CB004C08CA000800D90003
:100D4000500886008701500884008501003FD100CB
:100D5000013FD200D236D10C403F5107D300413F72
:100D6000523DD4005908860051278631031C0134B6
:100D700050083D278631D300413FD400D335D40DF0
:100D800051085307D5005208543DD6005908860033
:100D9000403FD700413FD80056085802031DD22ECD
:100DA000550857020318EC2E5908860087012D2795
:100DB0008631D500413FD600D535D60D53085502B2
:100DC000D7005408563BD80052085802031DEA2E9B
:100DD00051085702031C023450083D2786315C2716
:100DE00086311827863151084A07D30052084B3DF7
:100DF000D40059088600870151278631031804342E
:100E00005908860087012D2786315C2786311827EF
:100E1000863153084A02D50054084B3BD60052088D
:100E20005602031D152F51085502031C03340434C8
:100E3000CE01CF014A1C202F4C08CE074D08CF3DD4
:100E4000CC35CD0DCB36CA0C4B084A04031D1A2FE6
:100E50004F08CB004E08CA000800403FD100413F78
:100E6000D20050088600403FD300413FD400D43622
:100E7000D30C50088600403F080086008701403FA1
:100E8000D100413FD200D236D10C50088600403FFD
:100E900008005007860051080318890A87000108D6
:100EA0000800403FD500413FD60054085602031DBC
:100EB0000800530855020800CA00413FCB00033028
:100EC000CC00CD010800F600700886008701403F85
:100ED000F200413FF30076088600403FF400413FB6
:100EE000F50073087502031D772F7208740203184A
:100EF000872F760886008701700884008501403FAF
:100F00000002F0000131413F003BF1000800700891
:100F100086008701760884008501003FF200013FCA
:100F2000F300F209F309403F7207F400413F733DBB
:100F3000F5007408013EF0000030753DF100080036
:100F40002100A801AB01AD01AC012000A401A50165
:100F5000A601A701FB01FC01C601C701B001B00A4F
:100F6000B101B201B3010E1DC02FB7012100043041
:100F70001111250093002000111121001115080006
:100F80000230FA00B701B70A21000530B82FF70187
:100F9000F8012100A701A6012000A001A101A201E2
:100FA000A301BA01BB01BE01BF01A901A90AAA019F
:100FB000AB01AC018D1EE72FAF01210004301312ED
:100FC000260093002000131221001316080002309F
:100FD000F900AF01AF0A21000530DF2F6400800166
:080FE0000131890BEF2F0034F1
:10103600853021009500190887397038990099176D
:1010460020008E01900121000E110C108C1023003F
:101056000C108C108C158D118D148D1221008D1590
:101066008D1624008D152100F3300E15E000C727DC
:101076008831BD27883140309E1622009D00B12759
:1010860088311C268831143012110B178B178B16DA
:101096009700F901FA013030A401A501A701DF008C
:1010A600A901AA01AD012000B50110300C108C1069
:1010B6002100DD002730DE005E085D040319682884
:1010C6000130DD020030DE3B5F284F2788318A275A
:1010D60088312000280803197D28A80164007D288E
:1010E6000C1076280C148C1089280C107B280C14F4
:1010F6008C14892820002F08003A03197328013A16
:1011060003197528033A031978287A282F08023A12
:10111600031DBD2A2B082C060319BD2A2C35203E9B
:10112600860001308700403FB800413FB9002C08D7
:10113600073A0319A028AC0AA128AC01F80803193C
:1011460066297D290230D100D20113278831023069
:101156002100C700CD0120003908BB003808BA00BD
:10116600A90ABD2AD101D10AD20108278831210056
:10117600C801C80A20003908BF003808BE00B328D5
:101186003C30D000383086319F2688312100C90096
:10119600DC268831B3284030D000383086319F268F
:1011A60088312100CA0020003808BE073908BF3D33
:1011B600B3283C30D000383086319F268831210054
:1011C600CB00CB284030D000383086319F2688317E
:1011D6007E26883147268831DF25C7308331CF23E5
:1011E600883136268831B3258831AE006E3A031D24
:1011F6000D29C730853112258831C7308331CF2379
:10120600883136268831B3258831AE0047268831A5
:10121600DF2588312E08693A031D1F292E08210073
:10122600AF0020001730A901A90A2A02031CAA0A46
:10123600E8309626883162292E086C3A031D3C292F
:101246000A30CA00CB01CC01CD012308D100220807
:10125600D0002108CF002008CE0084315E248831DA
:101266004D08A3004C08A2004B08A1004A08A000A4
:10127600B3284F278831BD2A3C30D000383086311C
:101286009F2688312100CD00C7308331CF23883196
:1012960036268831B3258831AE006D3A031D3C29C8
:1012A6006A302100C60020001630A901A90AAA004A
:1012B60096268831E830A701A70AA601A60AA0004B
:1012C6000330A100BD2A2908013A0319A528033ACB
:1012D6000319B528013A0319C328073A0319CE287A
:1012E600013A0319DC28033A0319E528013A0319E0
:1012F6003F29BD2A2100A7080319142AA82A3C3031
:10130600D000383086319F268831AB284030D00057
:10131600383086319F2688312100C800BD283C30F0
:10132600D000383086319F268831EF002908C63E26
:10133600ED268831CB28CE284030D0003830863193
:101346009F2688317E26C7308331CF2388313626C3
:101356008831B3258831AE006E3A031DBF29C730E8
:10136600853112258831C7308331CF23883136261F
:101376008831B3258831AE0047268831DF2588318C
:101386002E086B3A0319B3282E086E3A031DD4298A
:1013960021003230AE2688316A3087018100B030B4
:1013A6009C2A2A08782688311730A901A90A2A0218
:1013B600031CAA0AA001A101A201A301BD2A3C3077
:1013C600D000383086319F2688312100CD00C730C5
:1013D6008331CF23883136268831B3258831AE0054
:1013E6006A3A031D112A2A087826B030AD00A901F1
:1013F600A90AAA01AF30D0000030D101D20186314E
:1014060041268831003A03190C2A2100A401A40AB6
:101416003C29D0268831B03020009C2A2100343067
:10142600CD2920002908013A03198229033A031914
:101436008929013A03199229073A03199E29013A83
:1014460003199229033A03199F29013A0319E2293C
:10145600BD2A4030D000383086319F2688312100A1
:10146600CC00CD01BD283C30D000383086319F26D7
:1014760088312100CB00AE28CE28C3284030D000CA
:10148600383086319F2688312100C800D6283C3066
:10149600D000383086319F2688312100C700DC26EF
:1014A600C7308331CF23883136268831B32588313A
:1014B600AE006E3A031D6C2AC7308531122588317D
:1014C600C7308331CF23883136268831B32588311A
:1014D600AE0047268831DF2588312E08693A031D7C
:1014E6008F2A2A087826AF30D000D1012A08D200E8
:1014F600863141268831003A03198C2A2100A4013D
:10150600A40A20002A08B03EAD00A901A90AAA0132
:101516003C29D0268831842A2E086E3A031D9E2A3D
:1015260021003230AE2688316930870181002A08D1
:10153600B03EAD003C292A0878268831A901A90ABF
:101546002A080319DD29AA03DD2920002908013A02
:1015560003192C2A033A0319362A013A03193F2A9A
:10156600073A0319402A013A0319412A033A031993
:101576004A2ABD2A20003708023A031DF02C3208F9
:1015860033060319F02C3335303E860001308700D0
:10159600403FC200413FC3003308073A0319D52A2A
:1015A600B30AD62AB3012100AB0803199C2BB42B2E
:1015B6000230D100D201FD26883102302100CE0052
:1015C600D40120004308FC004208FB00B00AF02CBE
:1015D600D101D10AD201F22688312100CF01CF0AEA
:1015E60020004308C7004208C600E92A4430D0005C
:1015F600423086319F2688312100D000D626883198
:10160600E92A4830D000423086319F2688312100B1
:10161600D10020004208C6074308C73DE92A4430E6
:10162600D000423086319F2688312100D200012B1E
:101636004830D000423086319F2688319E26883138
:1016460050268831DF25CE308331CF2388312526B9
:101656008831B3258831B6006E3A031D432BCE3050
:10166600853112258831CE308331CF238831252626
:101676008831B3258831B60050268831DF25883178
:101686003608693A031D552B36082200C000200093
:101696001730B001B00A3102031CB10AA4018E262C
:1016A6008831982B36086C3A031D722B0A30CA0013
:1016B600CB01CC01CD012708D1002608D000250892
:1016C600CF002408CE0084315E2488314D08A7005F
:1016D6004C08A6004B08A5004A08A400E92A8A2758
:1016E6008831F02C4430D000423086319F26883134
:1016F6002100D400CE308331CF238831252688318E
:10170600B3258831B6006D3A031D722B6A3022006C
:10171600D70020001630B001B00AB100A4018E2611
:101726008831AD01AD0AAC01AC0AA2000330A300BA
:10173600F02C20003008013A0319DB2A033A03197A
:10174600EB2A013A0319F92A073A0319042B013A3D
:101756000319122B033A03191B2B013A0319752B94
:10176600F02CAD080319472CDB2C4430D000423056
:1017760086319F268831E12A4830D00042308631B2
:101786009F2688312100CF00F32A4430D000423012
:1017960086319F268831EF003008CD3EED26883110
:1017A600012B042B4830D000423086319F268831E9
:1017B6009E26CE308331CF23883125268831B32526
:1017C6008831B6006E3A031DF52BCE3085311225D1
:1017D6008831CE308331CF23883125268831B32511
:1017E6008831B60050268831DF25883136086B3AB5
:1017F6000319E92A36086E3A031D082C21003230F7
:101806006E2688316A308100422C3108672688317D
:101816001730B001B00A3102031CB10AA401A501B8
:10182600A601A701F02C4430D000423086319F2615
:1018360088312100D400CE308331CF23883125264C
:101846008831B3258831B6006A3A031D442C310825
:1018560067264130B400B001B00AB1014030D00073
:101866000130D100D201863141268831003A031970
:10187600402C2100A901A90A722BB62688314130D5
:10188600CF2C21003430032C20003008013A0319F4
:10189600B82B033A0319BF2B013A0319C82B073A91
:1018A6000319D42B013A0319C82B033A0319D52B74
:1018B600013A0319162CF02C4830D00042308631FC
:1018C6009F2688312100D300D401F32A4430D0006A
:1018D600423086319F2688312100D200E42A042B2B
:1018E600F92A4830D000423086319F2688312100BF
:1018F600CF000C2B4430D000423086319F268831F1
:101906002100CE00D626CE308331CF23883125263E
:101916008831B3258831B6006E3A031D9F2CCE3030
:10192600853112258831CE308331CF238831252663
:101936008831B3258831B60050268831DF258831B5
:101946003608693A031DC32C310867264030D0009B
:101956000130D1003108D200863141268831003A63
:101966000319C02C2100A901A90A20003108413E13
:10197600B400B001B00AB101722BB6268831B82C7A
:1019860036086E3A031DD12C210032306E2688317E
:10199600693081003108413EB400722B3108672658
:1019A6008831B001B00A31080319112CB103112C8A
:1019B60020003008013A03195F2C033A0319692CF9
:1019C600013A0319722C073A0319732C013A0319C9
:1019D600742C033A03197D2CF02C210024080319DA
:1019E6000A2DA401A62688310319012D2D08CF0042
:1019F600D0010A2688312000AD0AF52CE826883168
:101A0600762788310D30A92588314F27883125085A
:101A160003194B2D2130A925883121005F08313A61
:101A2600031D202D3F30A9258831242D2D08CF00F8
:101A3600D0010A2688312000AD0AA6268831031D6A
:101A4600192D2E30A92588313130A92588312E301F
:101A5600A92588312100A608031D332D4630342DD3
:101A66005230A92588312E30A925883121005F08FA
:101A7600A9258831C4268831762788310D30A925D5
:101A8600883121003030A501DF00A6014F278831BB
:101A960029080319662DA901200086268831031915
:101AA6005D2D3408CF000130D0000A268831200091
:101AB600B40A4F2DE8268831762788310D30A925BE
:101AC60088318A2788312A0803196C282130A925EC
:101AD600883120003508313A031D7D2D3F30A92578
:101AE6008831812D3408CF000130D0000A26883194
:101AF6002000B40A86268831031D752D2E30A925AF
:101B060088313230A92588312E30A9258831210027
:101B1600AC08031D902D4630912D5230A9258831F1
:101B26002E30A925883120003508A9258831C426FC
:101B36008831762788310D30A9258831210030304B
:101B4600AA012000B5002100AC016A282000CA00C5
:101B560023009E1CAB2D20004A0823009A00080093
:101B6600D4015408CE000130CF01CE35CF0DCE358D
:101B7600CF0D4E07840082304F3D8500003FD000D8
:101B8600013FD100023FD200033FD3004D06031DA3
:101B9600D62D4C085206031DD62D4B085106031DA3
:101BA600D62D4A0850060319DD2D6E30D40A54028C
:101BB600031CB42D54080800D9005408043E8600BE
:101BC60087010108D500D6015408023E8600540854
:101BD600592688315208CA2688311E278831590865
:101BE600BD2688315408053E86000108D500D60179
:101BF6005408033E86005408013E5926883153088E
:101C0600CA2688311E2788315108BD2608000A30A9
:101C1600CA00E2268831D0278831303EA92588318E
:101C26000A302000CA00E2268831E8278831303E93
:101C3600A92D043011112500930020001111210057
:101C4600111508005908A7005808A6005708A5004E
:101C56005608A4002708CD002608CC002508CB008E
:101C66002408CA0008005908A3005808A20057080B
:101C7600A1005608A0002308CD002208CC002108A8
:101C8600CB002008CA0008004030D1003A30D2000C
:101C96003E30D300C730D4003C344830D1007B30CE
:101CA600D2004630D300CE30D400443484008501BF
:101CB60000080107D700D801D80D55085707CA00F4
:101CC6005608583DCB000800403E8600013087008C
:101CD600360881000800AA01AA0A2000B5003108CA
:101CE600403E8600013087000800AF3E860087012F
:101CF6002E08810008002100CC0020003808BE070D
:101D06003908BF3D08003408013E860001308700CF
:101D160001086A3A0800A501A601A7012100E830DA
:101D2600AB01AB0A0800A001A101A201A301F801C1
:101D3600F80A210008002100D30020004208C60747
:101D46004308C73D080020002D08013E8600870194
:101D560001086A3A0800A501A50ADF0020002A0842
:101D6600AF3E8600080021003530AA01AA0A2000ED
:101D7600B5000800860087014A08C03F4B08C13FEE
:101D86000800B9302000CB008330CC000800860064
:101D9600403FCC00413FCD00080021003530A50171
:101DA600A50ADF00080020004208FB074308FC3DA7
:101DB600080020003808BA073908BB3D08004F085C
:101DC60086005008870001080800B930CB00833030
:101DD600CC000800860087016F08810008005208C1
:101DE600CB005108492788311E274B08C9004A08ED
:101DF600C80008005208CB005108492788311E2721
:101E06004B08C5004A08C40008005208CB00510818
:101E1600432788311E274B08C1004A08C000080026
:101E26005208CB005108432788311E274B08BD00B6
:101E36004A08BC000800CE01CF014B084A0403192A
:101E46003E2FD001D00ACB1B2B2FCA35CB0D252F09
:101E5600CE35CF0D4B084D02031D332F4A084C02D9
:101E6600031C3A2F4A08CC024B08CD3B4E14CB3606
:101E7600CA0CD00B2B2F4F08CB004E08CA00080007
:101E8600CA003908CD003808CC000800CA0043084B
:101E9600CD004208CC000800F701F8012100A70197
:101EA600A6012000A001A101A201A301BA01BB0164
:101EB600BE01BF01A901A90AAA01AB01AC018D1E91
:101EC6006F2FAF012100043013122600930020006B
:101ED60013122100131608000230F900AF01AF0AF1
:101EE60021000530672F4B0884004C088500000848
:101EF6000038031908004B0884004C0885000008C8
:101F0600A92588312000CB0A0319CC0A762F210097
:101F1600A801AB01AD01AC012000A401A501A601F9
:101F2600A701FB01FC01C601C701B001B00AB1015E
:101F3600B201B3010E1DAA2FB70121000430111101
:101F46002500930020001111210011150800023010
:101F5600FA00B701B70A21000530A22F210013129B
:101F6600220004301D1726009300200013122100C2
:101F760013160800193023009B001E131E121E1193
:101F86001F101D139D170800393020009800990175
:101F960018141110210011100800CB00CD014A08B9
:101FA6000319E62FCC01CC0ACA1BDB2FCA35D62F64
:101FB600CD354A084B02031CE32F4A08CB024D14C9
:101FC600CA36CC0BDB2F4D080800CC000830CD00FC
:101FD600CE014C08CB000730CB36890BEF2F4E35A0
:101FE6004B04CE00CC354A084E02031CFC2F4A088F
:0A1FF600CE02CD0BEC2F4E080800C0
:020000040001F9
:04000E00FC3FFF1E96
:00000001FF
