:0400000081314029E1
:1000080080312000131E69282100131E6928023040
:1000180020008C0613125E280230F800AA01AA0AF2
:10002800210005301312260093002000131221002E
:1000380013166928AA012100043016282100320865
:1000480003193328260012082100D300D401D40054
:10005800D301260011082100D304B2015728260035
:1000680012082100D500D601D600D50126001108B6
:100078002100D504D530F000D33086312B268031CD
:100088003635A03E860087017008C03F7108C13F21
:100098003608073A03195228B60A5328B6015608F3
:1000A800D4005508D3000830F80001301312260098
:1000B800930619282A08003A03191028013A031947
:1000C8001E28033A0319222869282000111DCC286C
:1000D8002100111DCC2820001111C1280230FA007E
:1000E800AD01AD0A21000530111125009300200053
:1000F800111121001115CC28AD01210004307828F8
:1001080021003A0803199528250012082100D90072
:10011800DA01DA00D901250011082100D904BA0151
:10012800BA28250012082100DB00DC01DC00DB0115
:10013800250011082100DB04DB30F000D9308631BE
:100148002B2680313E35203E86000130870070081E
:10015800C03F7108C13F3E08073A0319B528BE0AD7
:10016800B628BE015C08DA005B08D9000830FA003E
:1001780001301111250093067B282D08003A031938
:100188007228013A03198028033A03198428CC28D5
:100198000B198B1E36290B11210063080319D62869
:1001A800E3030629023020008C06F3302100E30027
:1001B800B101B10A062978080319E428F803362999
:1001C800F701F70A21000830B201B20AF80002303C
:1001D800B601B701B5012000AA00210005301312AD
:1001E800260093002000131221001316362921003F
:1001F800B208031D36297808031DE2288631C8266F
:100208008031362920002A08013A0319DF28033AE9
:100218000319FB28022936297A0803191529FA0334
:100228000900F901F90A21000830BA01BA0AFA00EE
:100238000230BE01BF01BD012000AD002100053024
:10024800111125009300200011112100111509003A
:100258002100BA08031D09007A08031D13298631F5
:10026800A826090020002D08013A03191029033A8D
:0E02780003192C293329090088018631682ECC
:100400000034FE343C3403340034AA3463340334FF
:1004100000340D346434033400348734D934013467
:100420000034EA34D93401340034963400340234D0
:1004300000346534DD3401340034C834DD34013433
:10044000003474340434023400341D346034033412
:10045000003480346034033400342C348734033463
:1004600000346834B634013400341434DD340134DB
:1004700000347734DD34013400344634BA34013486
:100480000034F234E034013400345534E1340134C2
:100490000034EB34673403340034CC345F34033439
:1004A00000342F34603403340034DC3440340334FB
:1004B000003488346734033400344334C3340434A0
:1004C0000034B634BF34043400346234E6340434C7
:1004D0000034C534E634043400349434C334043472
:1004E00000344034EA3404340034A334EA340434AD
:1004F00000349B343C340334003461343D340334E1
:100500000034B9348A3403340034DB34B234013477
:1005100000343334003402340034F934003402340B
:100520000034B934B63401340034113404340234A4
:100530000034D73404340234003471343934033491
:100540000034C9348634033400348F3487340334A0
:1005500000340534B63401340034CB34B6340134BD
:1005600000342334043402340034E334B934013425
:100570000034A934BA34013400340134083402346C
:1005800000342134C7340434003483343934033420
:100590000034DB348634033400347934403403349B
:1005A00000343F344134033400348B34403403345A
:1005B00000345334BF34043400341934C0340434A8
:1005C000003471340D34053400343134C334043410
:1005D0000034F734C334043400344F341134053458
:1005E0000034FF34CA3404340034E3346034033458
:1005F000003407349434063400347834B23401348F
:1006000000343E34B334013400342434D93401345A
:1006100000344D34DA3401340034423427340234A7
:100620000034A5342734023400345634B63401344F
:1006300000341C34B734013400340234DD34013466
:1006400000342B34DE340134003420342B340234B3
:10065000003483342B34023400343B34AE3403345E
:100660000034BA345F3403340034B7344D340634C4
:100670000034D834AD3403340034DF340B34023466
:1006800000348A34B234013400343634D93401347D
:1006900000349934D934013400342434BE34013464
:1006A0000034D034E434013400343334E5340134DC
:1006B00000344C34463406340034F8346C34063498
:1006C00000345B346D3406340034AD343C340334D0
:1006D00000346934443403340034D93449340634A2
:1006E00000342734B23401340034ED34B2340134F0
:1006F00000344534003402340034C134BD34013494
:1007000000348734BE3401340034E93445340634CF
:100710000034AF34463406340034F534B93401348F
:100720000034D334BD34013400346534BF34043470
:100730000034FB34453406340034D43439340334C3
:1007400000340E3439340334003420343934033463
:100750000034E83491342334003497348E34033435
:100760000034BD3438340334003464343734203436
:1007700000342000EE00063E860087018108031D3C
:10078000F32B6E08043E86000108CA000A309F243D
:10079000833148248331DE248331033ECF248331E7
:1007A0009F24833148248331D4248331023EA724FB
:1007B000833148248331E8248331013EB5248331D9
:1007C00048248331F22483319024833148248331B7
:1007D0004A08E6074B08E73D4C08E83D4D086D2404
:1007E0008331053EC32C6E08053E86008701010853
:1007F000CA000A309F24833148248331DE248331A8
:10080000043ECF2483319F24833148248331D42470
:100810008331033EA724833148248331E824833184
:10082000023EB524833148248331F2248331013ED2
:1008300090248331482483314A08EA004B08EB00B6
:100840004C08EC004D08ED006E0886008701010899
:10085000CA000F30CB01CC01CD01D101D000423014
:10086000CF004030CE00482483314A08EA074B08C5
:10087000EB3D4C08EC3D4D08ED3D6A08E6076B0882
:10088000E73D6C08E83D6D086D248331063EC32CBE
:10089000D201D301D401D5014A1C562C4E08D207EF
:1008A0004F08D33D5008D43D5108D53DCE35CF0D2E
:1008B000D00DD10DCD36CC0CCB0CCA0C4D084C0450
:1008C0004B044A04031D4C2C5508CD005408CC00A1
:1008D0005308CB005208CA000800E93D6608E20749
:1008E0006708E33D6808E43D6908E53D6208DE0706
:1008F0006308DF3D6408E03D6508E13D5E08DA0716
:100900005F08DB3D6008DC3D6108DD3D5D08D90026
:100910005C08D8005B08D7005A08D6006E080800AB
:10092000860087010108CA000130CB01CC01CD014E
:10093000D101D0008630CF00A030CE000800CB011E
:10094000CC01CD01CE00CF01D001D101080086003D
:1009500087010108CA000330CB01CC01CD01D101D0
:10096000D001CF00E830CE000800860087010108E2
:10097000CA002730CB01CC01CD01D101D001CF007D
:100980001030CE000800860087010108D60701302C
:100990000318D7070318D8070318D90708008600DB
:1009A00087010108CA0064344A08DE004B08DF00F2
:1009B0004C08E0004D08E1006E0808004A08DA0023
:1009C0004B08DB004C08DC004D08DD006E08080019
:1009D0004A08E2004B08E3004C08E4004D08E5003B
:1009E0006E0808004A08E6004B08E7004C08E800DB
:1009F0004D08E9006E080800D300053E8600870117
:100A00005308043E840085010008CA005308033ED1
:100A100084000008CB005308023E84000008CC008C
:100A20005308013E84000008CD00530884000008EC
:100A30004D074C074B074A070107CE005308053EF8
:100A400086005308033E84000008CA005308013E94
:100A5000840000084A070107D0005308043E8600BE
:100A60005308023E84000008CA00530884000008AE
:100A70004A070107CF000C304E02031CA02D4E0880
:100A8000F53ED20005305202031800340430D10084
:100A9000D2080319013450184F18772D5218772DAA
:100AA000D4015B2D0B268431031C5A2D54082026BB
:100AB0008431D003D40A0630D40A54020318632DBB
:100AC000D208031D522DD4016F2D0B268431031C37
:100AD0006D2D540820268431CF03D40AD40A053062
:100AE00054020318992DD208031D652D992D4F1C12
:100AF000882DD4010B268431031C832D5408202615
:100B00008431CF03992D26268431031C7A2D992D0B
:100B100050180034D401D40A0B268431031C952DBF
:100B2000540820268431D003992D26268431031CB5
:100B30008C2D52080319482DD103510B482D003438
:100B40000B304E02031801344E080B3CD200053026
:100B5000520203180034D101D10AD208031901341A
:100B600050184F18DE2D5218DE2DD401C12D540817
:100B700013268431031CC02D54081A268431D00A50
:100B8000D40A0630D40A54020318C92DD208031D12
:100B9000B72DD401D62D540813268431031CD42D2F
:100BA00054081A268431CF0AD40AD40A05305402D4
:100BB0000318022ED208031DCB2D022E4F1CF02D40
:100BC000D401540813268431031CEB2D54081A2633
:100BD0008431CF0A022E26268431031CE12D022EF9
:100BE00050180034D401D40A540813268431031C4D
:100BF000FE2D54081A268431D00A022E262684316E
:100C0000031CF42D52080319AD2DD10A5108043AE2
:100C100003190034AD2D54085307CA00860087011C
:100C20005108010208005307CA0086008701010825
:100C3000510208005307CA008600810AD203080047
:100C40005307CA0086008103D20308000630D40A85
:100C5000D40A54020800F600700886008701403F5D
:100C6000F200413FF30076088600403FF400413F28
:100C7000F50073087502031D3F2E720874020318F5
:100C80004F2E760886008701700884008501403F5A
:100C90000002F0000131413F003BF1000800700804
:100CA00086008701760884008501003FF200013F3D
:100CB000F300F209F309403F7207F400413F733D2E
:100CC000F5007408013EF0000030753DF1000800A9
:100CD0002030F701F801F901FA01FB01FC01840061
:100CE000003085002A30873104278631A030840007
:100CF000003085003F308731042786312030840062
:100D000001308500403087310427200088310728D2
:100D10002100BA01BD01C101F901F90A2000AB01AE
:100D20002100BE01BF0120000E1DA12EAD0121003A
:100D3000043011112500930020001111210011151C
:100D400008000230FA00AD01AD0A21000530992EED
:100D50002100BA01BD01C101F901F90A2000AB016E
:100D60002100BE01BF0120000E1DC12EAD012100DA
:100D700004301111250093002000111121001115DC
:100D800008000230FA00AD01AD0A21000530B92E8D
:100D90002100B201B501B901F701F70A2000A8014D
:100DA0002100B601B70120008D1DE12EAA0121000E
:100DB0000430131226009300200013122100131692
:100DC00008000230F800AA01AA0A21000530D92E35
:100DD000193023009B001E131E121E111F101D131D
:100DE0009D1708003930200098009901181411103F
:100DF000210011100800043011112500930020007B
:100E00001111210011150800640080010131890BC6
:040E1000052F003476
:10100E008530210095001908873970389900991795
:10101E0020008E01900121000E118C1023008C10E7
:10102E008C158D118D148D1221008D158D162400A9
:10103E008D152100F3300E15E3007830E2000E30EE
:10104E00E100B0018631F22688318631E8268831FA
:10105E0040309E1622009D00F4278631FB268831F3
:10106E00143012110B178B178B169700F801FA011B
:10107E0020008C1021001030B301B401B901BB0166
:10108E00BC01C101DF002730E00060085F040319D6
:10109E0055280130DF020030E03B4C28D427863142
:1010AE0088268831310803197028B101B008031D54
:1010BE00612864002100620803196728E203702882
:1010CE007830E200610803196E28E1037028B00140
:1010DE00B00A20002A08023A031D702A21003608A1
:1010EE0037060319702A3735A03E86008701403F28
:1010FE002000AE00413FAF0021003708073A031928
:10110E008A28B70A8B28B701B508031945295C2927
:10111E0002302000D100D201382788310230210060
:10112E00C300C90120002F082100D20020002E0884
:10113E002100D100F70A702A2000D101D10AD20174
:10114E00212788312100C401C40A20002F08FC0089
:10115E002E08FB00A1286525883140268831210004
:10116E00C500B9258831A1286D25883140268831E2
:10117E002100C60020002E08FB072F08FC3DA128E9
:10118E0065258831402688312100C700B8286D2595
:10119E00883140268831C22588313C258831D724B4
:1011AE00C3308331B92388311A258831AB24883175
:1011BE00A9006E3A031DF428C3308431FC24883113
:1011CE00C3308331B92388311A258831AB24883155
:1011DE00A9003C258831D72488312908693A031D96
:1011EE00062929082200B0001730F701F70A20005F
:1011FE002802031CA80AA001D1258831702A2908CB
:10120E006C3A031D23290A30CA00CB01CC01CD0153
:10121E002308D1002208D0002108CF002008CE00DC
:10122E008431482488314D08A3004C08A2004B0895
:10123E00A1004A08A000A128D4278831702A65256C
:10124E00883140262100C900C3308331B92388314B
:10125E001A258831AB248831A9006D3A031D232944
:10126E006A302200C7001630F701F70A2000A800E6
:10127E00A001D1258831B901B90A702A7708013A3F
:10128E0003198F28033A0319A328013A0319B22828
:10129E00073A0319BB28013A0319C728033A031961
:1012AE00CE28013A03192629702AB9080319DC2918
:1012BE005C2A652588314026883196286D2588312F
:1012CE00402688312100C400AC286525883140268F
:1012DE008831EF007708C23EE5258831B828BB2853
:1012EE006D25883140268831C225C3308331B9231C
:1012FE0088311A258831AB248831A9006E3A031D36
:10130E009529C3308431FC248831C3308331B9230D
:10131E0088311A258831AB248831A9003C258831C3
:10132E00D724883129086B3A0319A12829086E3A67
:10133E00031DA5292100B401B40A232928089C25E0
:10134E0088311730F701F70A2802031CA80AA001FA
:10135E00A101A201A301702A652588314026210032
:10136E00C900C3308331B92388311A258831AB24A3
:10137E008831A9006A3A031DA12928089C258831C5
:10138E002100B801B80AF701F70A20003030A80191
:10139E00D001EA258831003A031923292100B3012F
:1013AE00B30A232920008C14702A7708013A0319F6
:1013BE006029033A03196529013A03196C29073A82
:1013CE0003197629013A03196C29033A031977296F
:1013DE00013A0319B329D9296D2588314026883160
:1013EE002100C800C901AC28652588314026883106
:1013FE002100C7009928BB28B2286D2588314026C8
:10140E0088312100C400C1286525883140268831E5
:10141E002100C300B925C3308331B92388311A2581
:10142E008831AB248831A9006E3A031D2B2AC330B4
:10143E008431FC248831C3308331B92388311A2595
:10144E008831AB248831A9003C258831D7248831D6
:10145E002908693A031D4E2A28089C258831280838
:10146E00D0003030EA258831003A03194A2A21008B
:10147E00B301B30A2000280A2100B800F701F70AC9
:10148E002000A80123292100B401B40A452A290805
:10149E006E3A0319A12928089C258831F701F70A0D
:1014AE0028080319AE29A803AE297708013A0319B3
:1014BE00F329033A0319FB29013A0319022A073AC1
:1014CE000319032A013A0319042A033A03190B2AB2
:1014DE00D92920002D08023A031D782C21003E0840
:1014EE003F060319782C3F35203E860001308700D9
:1014FE00403F2000BC00413FBD0021003F08073A9D
:10150E0003198B2ABF0A8C2ABF01BD0803192F2B82
:10151E00462B02302000D100D2010A27883102303A
:10152E002100CA00D00120003D082100D800200073
:10153E003C082100D700F90A782C2000D101D10AED
:10154E00D201F32688312100CB01CB0A20003D08C1
:10155E002100DE0020003C082100DD00A22A5D25CE
:10156E00883140268831EF007908C93EE52588315B
:10157E00B0258831A22A7525883140268831210070
:10158E00CD0093258831A22A7525883140268831D1
:10159E002100CF0093258831443020004D2588311D
:1015AE00D724CA308331B92388312B258831AB2417
:1015BE008831AC006E3A031DF62ACA308431FC2401
:1015CE008831CA308331B92388312B258831AB2439
:1015DE008831AC0044304D258831D72488312C0811
:1015EE00693A031D082B2C082200C8001730F90198
:1015FE00F90A20002B02031CAB0AA401CA2588316C
:10160E00782C2C086C3A0319A22A86318826883148
:10161E00782C5D25883140262100D000CA308331D8
:10162E00B92388312B258831AB248831AC006D3A33
:10163E00031D0C2B6A302200DF001630F901F90A67
:10164E002000AB00A401CA258831C101C10A782C43
:10165E007908013A0319902A033A0319A42A013A88
:10166E000319B62A073A0319C22A013A0319B62AF0
:10167E00033A0319CB2A013A0319102B782CC1080F
:10168E000319DD2B642C5D25883140268831972A7D
:10169E0075258831402688312100CB00AD2A042CD7
:1016AE00C22A5D258831402688312100CE00BF2A0E
:1016BE0075258831402688312100CF009325CA3008
:1016CE008331B92388312B258831AB248831AC0086
:1016DE006E3A031D7F2BCA308431FC248831CA3008
:1016EE008331B92388312B258831AB248831AC0066
:1016FE0044304D258831D72488312C086B3A031D90
:10170E00A12B0A30CA00CB01CC01CD012708D10094
:10171E002608D0002508CF002408CE0084314824A6
:10172E0088314D08A7004C08A6004B08A5004A08B2
:10173E00A400A22A2C086E3A031DA92B2100BC017D
:10174E00BC0A0C2B2B08A32588311730F901F90A96
:10175E002B02031CAB0AA401A501A601A701782C3C
:10176E005D25883140262100D000CA308331B9234F
:10177E0088312B258831AB248831AC006A3A031DA1
:10178E00A52B2B08A32588312100C001C00AF90121
:10179E00F90A20004830AB01D001EA258831003A21
:1017AE0003190C2B2100BB01BB0A0C2B7908013A43
:1017BE0003194A2B033A03194F2B013A0319562BDF
:1017CE00073A0319572B013A0319582B033A0319F9
:1017DE005F2B013A0319B72B782C752588314026DB
:1017EE0088312100CF00D001AD2A5D2588314026F9
:1017FE0088312100CE009A2AC22A5D2588314026E2
:10180E0088312100CC00BF2A7525883140268831C9
:10181E002100CB00C82A5D25883140268831210061
:10182E00CA00B025CA308331B92388312B258831BF
:10183E00AB248831AC006E3A031D322CCA30843191
:10184E00FC248831CA308331B92388312B25883165
:10185E00AB248831AC0044304D258831D7248831F3
:10186E002C08693A031D562C2B08A32588312B080A
:10187E00D0004830EA258831003A0319522C210055
:10188E00BB01BB0A20002B0A2100C000F901F90A96
:10189E002000AB010C2B2100BC01BC0A4D2C2C08E6
:1018AE006E3A0319A52B2B08A3258831F901F90AE5
:1018BE002B080319B22BAB03B22B7908013A03198B
:1018CE00F42B033A0319FC2B013A0319032C073AA4
:1018DE000319042C013A03190B2C033A0319122C89
:1018EE00782C2100330803198D2CB3013808313EB2
:1018FE00D926883103198A2C3808303E8027883142
:10190E002100B80A7D2C0D3094278831210034082F
:10191E00031DB4013B080319A52CBB014008493E29
:10192E00D92688310319A22C4008483E80278831D9
:10193E002100C00A952C0D309427883121003C08D7
:10194E0003195928BC015928D4015408CE0001307E
:10195E00CF01CE35CF0DCE35CF0D4E078400823060
:10196E004F3D8500003FD000013FD100023FD20025
:10197E00033FD3004D06031DCE2C4C085206031D0B
:10198E00CE2C4B085106031DCE2C4A0850060319C7
:10199E00D52C6E30D40A5402031CAC2C540808000B
:1019AE00DD005808043E860087010108D900DA01DF
:1019BE005808023E86005808852588315208DF25D2
:1019CE0088314F2788315D08D82588315D087D25FF
:1019DE0088315408AA2588315D087D25883155083F
:1019EE00AA2588315808053E86000108D900DA017B
:1019FE005808033E86005808013E85258831530855
:101A0E00DF2588314F2788315108D8258831510874
:101A1E007D2588315408AA25883151087D258831C5
:101A2E005508AA2508005908A3005808A20057080F
:101A3E00A1005608A0002308CD002208CC002108E2
:101A4E00CB002008CA0008005908A7005808A600B5
:101A5E005708A5005608A4002708CD002608CC007C
:101A6E002508CB002408CA0008003630D100D1303A
:101A7E00D2007B30D3003430D4003230D5003A302F
:101A8E00D6003830D700C330D8003034D100D7302C
:101A9E00D200DD30D3004230D4004030D500483083
:101AAE00D6004630D700CA30D8003E343E30200033
:101ABE00D0004230D1004030D2003C3430302000D3
:101ACE00D0003430D1003230D2002E3436302000E7
:101ADE00D0003A30D1003830D2002E3444302000BD
:101AEE00D0004830D1004630D2003C348600403F12
:101AFE00D900413FDA00DA36D90C0800840085019E
:101B0E0000080107DB00DC01DC0D59085B07CA0089
:101B1E005A085C3DCB00080020003C082100DD0780
:101B2E0020003D082100DE3D0800303E86000130D9
:101B3E008700290881000800483E86000130870092
:101B4E002C088100080086005908C03F5A08C13F82
:101B5E00080020003C082100D70720003D08210086
:101B6E00D83D080020002E082100D10720002F08A4
:101B7E002100D23D08002100C80020002E08FB07DE
:101B8E002F08FC3D0800A501A601A7012100BD01FB
:101B9E00BD0A0800A101A201A3012100B501B50AE9
:101BAE000800860087014A08C03F4B08C13F080065
:101BBE008600403FCC00413FCD00080086008701E3
:101BCE006F0881000800D6005008D700E52688313E
:101BDE00D200D301D70AD501D50A57085607D1002E
:101BEE00013ED926883103190E2E57085607D1000B
:101BFE0086000108CA00CB015508CC00CD01A826ED
:101C0E0088314A08D2074B08D33DD70AF32D6730E7
:101C1E00CA00CB015308CD005208CC0020268831D3
:101C2E004A08D4005708E5268831540603190134B2
:101C3E0000344B084A0403193B2ECE01CE0ACB1BAF
:101C4E002B2ECA35CB0D252E4B084D02031D312EE2
:101C5E004A084C02031C372E4A08CC024B08CD3BD7
:101C6E00CB36CA0CCE0B2B2E4D08CB004C08CA001F
:101C7E000800D9005108DF268831403F0007D30005
:101C8E000131413F003DBD268831031C013451080E
:101C9E00DF268831003FD300013FD400D335D40D69
:101CAE00403F5307D500413F543DD60059088600AA
:101CBE00403FD700413FD80056085802031D692EF9
:101CCE00550857020318812E5908CC268831D500A5
:101CDE00013FD600D535D60D403F5502D700413FC6
:101CEE00563BD80054085802031D7F2E5308570246
:101CFE00031C02345108DF268831003FEC26883160
:101D0E00A8268831403F4A07D300413F4B3DBD26B0
:101D1E008831031804345908CC268831EC268831D2
:101D2E00A8268831403F4A02D500413F4B3BD600A2
:101D3E0054085602031DA52E53085502031C0334E6
:101D4E000434CE01CF014A1CB02E4C08CE074D08EC
:101D5E00CF3DCC35CD0DCB36CA0C4B084A04031DF6
:101D6E00AA2E4F08CB004E08CA000800D40059080E
:101D7E0086008701403FD500413FD60054085602E9
:101D8E00031D080053085502080086008701403FD6
:101D9E00D300413FD40052088600500884008501CC
:101DAE00003F080086000130870001086A3A0800EB
:101DBE008600870150088400850108005607D1006F
:101DCE0086000130870001080800CA00013FCB00E1
:101DDE000330CC00CD0108005208CB0051087A2701
:101DEE0088314F274B08C5004A08C4004508C90072
:101DFE004408C800C936C80C4508C7004408C600C8
:101E0E00C736C60C08005208CB0051087A27883115
:101E1E004F274B08BF004A08BE003F08C3003E08CC
:101E2E00C200C336C20C3F08C1003E08C000C13616
:101E3E00C00C08005208CB005108742788314F2778
:101E4E004B08B7004A08B6003708BB003608BA0080
:101E5E00BB36BA0C3708B9003608B800B936B80C1C
:101E6E0008005208CB005108742788314F274B08C1
:101E7E00B1004A08B0003108B5003008B400B536DC
:101E8E00B40C3108B3003008B200B336B20C0800FF
:101E9E00CE01CF014B084A0403196F2FD001D00A8F
:101EAE00CB1B5C2FCA35CB0D562FCE35CF0D4B0825
:101EBE004D02031D642F4A084C02031C6B2F4A0867
:101ECE00CC024B08CD3B4E14CB36CA0CD00B5C2F3C
:101EDE004F08CB004E08CA000800CA002F08CD00DC
:101EEE002E08CC000800CA003D08CD003C08CC00EE
:101EFE0008002000CF000A30CA00CE2788319E2766
:101F0E008831303E942788310A302000CA00CE270F
:101F1E008831B6278831303E942F2000CA00230026
:101F2E009E1C962F20004A0823009A000800CB0022
:101F3E00CD014A080319B42FCC01CC0ACA1BA92F14
:101F4E00CA35A42FCD354A084B02031CB12F4A08BF
:101F5E00CB024D14CA36CC0BA92F4D080800CC006D
:101F6E000830CD00CE014C08CB000730CB36890BA4
:101F7E00BD2F4E354B04CE00CC354A084E02031C05
:101F8E00CA2F4A08CE02CD0BBA2F4E0808004F08B2
:101F9E00860001308700010808002100B201B5015A
:101FAE00B901F701F70A2000A8012100B601B70117
:101FBE0020008D1DED2FAA012100043013122600E2
:101FCE009300200013122100131608000230F800AF
:101FDE00AA01AA0A21000530E52F210013122200C2
:101FEE0004301D1726009300200013122100131633
:021FFE000800D9
:020000040001F9
:04000E00FC3FFF1E96
:00000001FF
